{
  "_format": "hh-sol-artifact-1",
  "contractName": "GMechToken",
  "sourceName": "contracts/EMechToken.sol",
  "abi": [
    {
      "inputs": [],
      "stateMutability": "nonpayable",
      "type": "constructor"
    },
    {
      "inputs": [],
      "name": "ApprovalCallerNotOwnerNorApproved",
      "type": "error"
    },
    {
      "inputs": [],
      "name": "ApprovalQueryForNonexistentToken",
      "type": "error"
    },
    {
      "inputs": [],
      "name": "ApproveToCaller",
      "type": "error"
    },
    {
      "inputs": [],
      "name": "BalanceQueryForZeroAddress",
      "type": "error"
    },
    {
      "inputs": [],
      "name": "MintERC2309QuantityExceedsLimit",
      "type": "error"
    },
    {
      "inputs": [],
      "name": "MintToZeroAddress",
      "type": "error"
    },
    {
      "inputs": [],
      "name": "MintZeroQuantity",
      "type": "error"
    },
    {
      "inputs": [],
      "name": "OwnerQueryForNonexistentToken",
      "type": "error"
    },
    {
      "inputs": [],
      "name": "OwnershipNotInitializedForExtraData",
      "type": "error"
    },
    {
      "inputs": [],
      "name": "TransferCallerNotOwnerNorApproved",
      "type": "error"
    },
    {
      "inputs": [],
      "name": "TransferFromIncorrectOwner",
      "type": "error"
    },
    {
      "inputs": [],
      "name": "TransferToNonERC721ReceiverImplementer",
      "type": "error"
    },
    {
      "inputs": [],
      "name": "TransferToZeroAddress",
      "type": "error"
    },
    {
      "inputs": [],
      "name": "URIQueryForNonexistentToken",
      "type": "error"
    },
    {
      "anonymous": false,
      "inputs": [
        {
          "indexed": false,
          "internalType": "address",
          "name": "previousAdmin",
          "type": "address"
        },
        {
          "indexed": false,
          "internalType": "address",
          "name": "newAdmin",
          "type": "address"
        }
      ],
      "name": "AdminChanged",
      "type": "event"
    },
    {
      "anonymous": false,
      "inputs": [
        {
          "indexed": true,
          "internalType": "address",
          "name": "owner",
          "type": "address"
        },
        {
          "indexed": true,
          "internalType": "address",
          "name": "approved",
          "type": "address"
        },
        {
          "indexed": true,
          "internalType": "uint256",
          "name": "tokenId",
          "type": "uint256"
        }
      ],
      "name": "Approval",
      "type": "event"
    },
    {
      "anonymous": false,
      "inputs": [
        {
          "indexed": true,
          "internalType": "address",
          "name": "owner",
          "type": "address"
        },
        {
          "indexed": true,
          "internalType": "address",
          "name": "operator",
          "type": "address"
        },
        {
          "indexed": false,
          "internalType": "bool",
          "name": "approved",
          "type": "bool"
        }
      ],
      "name": "ApprovalForAll",
      "type": "event"
    },
    {
      "anonymous": false,
      "inputs": [
        {
          "indexed": true,
          "internalType": "address",
          "name": "beacon",
          "type": "address"
        }
      ],
      "name": "BeaconUpgraded",
      "type": "event"
    },
    {
      "anonymous": false,
      "inputs": [
        {
          "indexed": true,
          "internalType": "uint256",
          "name": "fromTokenId",
          "type": "uint256"
        },
        {
          "indexed": false,
          "internalType": "uint256",
          "name": "toTokenId",
          "type": "uint256"
        },
        {
          "indexed": true,
          "internalType": "address",
          "name": "from",
          "type": "address"
        },
        {
          "indexed": true,
          "internalType": "address",
          "name": "to",
          "type": "address"
        }
      ],
      "name": "ConsecutiveTransfer",
      "type": "event"
    },
    {
      "anonymous": false,
      "inputs": [
        {
          "indexed": false,
          "internalType": "address",
          "name": "receiverAddress",
          "type": "address"
        },
        {
          "indexed": false,
          "internalType": "uint256",
          "name": "tokenId",
          "type": "uint256"
        }
      ],
      "name": "EMechMinted",
      "type": "event"
    },
    {
      "anonymous": false,
      "inputs": [
        {
          "indexed": false,
          "internalType": "uint8",
          "name": "version",
          "type": "uint8"
        }
      ],
      "name": "Initialized",
      "type": "event"
    },
    {
      "anonymous": false,
      "inputs": [
        {
          "indexed": true,
          "internalType": "address",
          "name": "previousOwner",
          "type": "address"
        },
        {
          "indexed": true,
          "internalType": "address",
          "name": "newOwner",
          "type": "address"
        }
      ],
      "name": "OwnershipTransferred",
      "type": "event"
    },
    {
      "anonymous": false,
      "inputs": [
        {
          "indexed": true,
          "internalType": "address",
          "name": "from",
          "type": "address"
        },
        {
          "indexed": true,
          "internalType": "address",
          "name": "to",
          "type": "address"
        },
        {
          "indexed": true,
          "internalType": "uint256",
          "name": "tokenId",
          "type": "uint256"
        }
      ],
      "name": "Transfer",
      "type": "event"
    },
    {
      "anonymous": false,
      "inputs": [
        {
          "indexed": true,
          "internalType": "address",
          "name": "implementation",
          "type": "address"
        }
      ],
      "name": "Upgraded",
      "type": "event"
    },
    {
      "inputs": [
        {
          "internalType": "address",
          "name": "to",
          "type": "address"
        },
        {
          "internalType": "uint256",
          "name": "tokenId",
          "type": "uint256"
        }
      ],
      "name": "approve",
      "outputs": [],
      "stateMutability": "nonpayable",
      "type": "function"
    },
    {
      "inputs": [
        {
          "internalType": "address",
          "name": "owner",
          "type": "address"
        }
      ],
      "name": "balanceOf",
      "outputs": [
        {
          "internalType": "uint256",
          "name": "",
          "type": "uint256"
        }
      ],
      "stateMutability": "view",
      "type": "function"
    },
    {
      "inputs": [],
      "name": "baseURI",
      "outputs": [
        {
          "internalType": "string",
          "name": "",
          "type": "string"
        }
      ],
      "stateMutability": "view",
      "type": "function"
    },
    {
      "inputs": [
        {
          "internalType": "uint256",
          "name": "tokenId",
          "type": "uint256"
        }
      ],
      "name": "getApproved",
      "outputs": [
        {
          "internalType": "address",
          "name": "",
          "type": "address"
        }
      ],
      "stateMutability": "view",
      "type": "function"
    },
    {
      "inputs": [],
      "name": "initialize",
      "outputs": [],
      "stateMutability": "nonpayable",
      "type": "function"
    },
    {
      "inputs": [
        {
          "internalType": "address",
          "name": "owner",
          "type": "address"
        },
        {
          "internalType": "address",
          "name": "operator",
          "type": "address"
        }
      ],
      "name": "isApprovedForAll",
      "outputs": [
        {
          "internalType": "bool",
          "name": "",
          "type": "bool"
        }
      ],
      "stateMutability": "view",
      "type": "function"
    },
    {
      "inputs": [],
      "name": "mechToken",
      "outputs": [
        {
          "internalType": "contract IMechToken",
          "name": "",
          "type": "address"
        }
      ],
      "stateMutability": "view",
      "type": "function"
    },
    {
      "inputs": [
        {
          "internalType": "address",
          "name": "_receiverAddress",
          "type": "address"
        },
        {
          "internalType": "uint256",
          "name": "_mechTokenId",
          "type": "uint256"
        }
      ],
      "name": "mintEMech",
      "outputs": [],
      "stateMutability": "nonpayable",
      "type": "function"
    },
    {
      "inputs": [],
      "name": "name",
      "outputs": [
        {
          "internalType": "string",
          "name": "",
          "type": "string"
        }
      ],
      "stateMutability": "view",
      "type": "function"
    },
    {
      "inputs": [],
      "name": "owner",
      "outputs": [
        {
          "internalType": "address",
          "name": "",
          "type": "address"
        }
      ],
      "stateMutability": "view",
      "type": "function"
    },
    {
      "inputs": [
        {
          "internalType": "uint256",
          "name": "tokenId",
          "type": "uint256"
        }
      ],
      "name": "ownerOf",
      "outputs": [
        {
          "internalType": "address",
          "name": "",
          "type": "address"
        }
      ],
      "stateMutability": "view",
      "type": "function"
    },
    {
      "inputs": [],
      "name": "proxiableUUID",
      "outputs": [
        {
          "internalType": "bytes32",
          "name": "",
          "type": "bytes32"
        }
      ],
      "stateMutability": "view",
      "type": "function"
    },
    {
      "inputs": [],
      "name": "renounceOwnership",
      "outputs": [],
      "stateMutability": "nonpayable",
      "type": "function"
    },
    {
      "inputs": [
        {
          "internalType": "address",
          "name": "from",
          "type": "address"
        },
        {
          "internalType": "address",
          "name": "to",
          "type": "address"
        },
        {
          "internalType": "uint256",
          "name": "tokenId",
          "type": "uint256"
        }
      ],
      "name": "safeTransferFrom",
      "outputs": [],
      "stateMutability": "nonpayable",
      "type": "function"
    },
    {
      "inputs": [
        {
          "internalType": "address",
          "name": "from",
          "type": "address"
        },
        {
          "internalType": "address",
          "name": "to",
          "type": "address"
        },
        {
          "internalType": "uint256",
          "name": "tokenId",
          "type": "uint256"
        },
        {
          "internalType": "bytes",
          "name": "_data",
          "type": "bytes"
        }
      ],
      "name": "safeTransferFrom",
      "outputs": [],
      "stateMutability": "nonpayable",
      "type": "function"
    },
    {
      "inputs": [
        {
          "internalType": "address",
          "name": "operator",
          "type": "address"
        },
        {
          "internalType": "bool",
          "name": "approved",
          "type": "bool"
        }
      ],
      "name": "setApprovalForAll",
      "outputs": [],
      "stateMutability": "nonpayable",
      "type": "function"
    },
    {
      "inputs": [
        {
          "internalType": "contract IMechToken",
          "name": "_mechToken",
          "type": "address"
        }
      ],
      "name": "setMechToken",
      "outputs": [],
      "stateMutability": "nonpayable",
      "type": "function"
    },
    {
      "inputs": [
        {
          "internalType": "bytes4",
          "name": "interfaceId",
          "type": "bytes4"
        }
      ],
      "name": "supportsInterface",
      "outputs": [
        {
          "internalType": "bool",
          "name": "",
          "type": "bool"
        }
      ],
      "stateMutability": "view",
      "type": "function"
    },
    {
      "inputs": [],
      "name": "symbol",
      "outputs": [
        {
          "internalType": "string",
          "name": "",
          "type": "string"
        }
      ],
      "stateMutability": "view",
      "type": "function"
    },
    {
      "inputs": [
        {
          "internalType": "uint256",
          "name": "tokenId",
          "type": "uint256"
        }
      ],
      "name": "tokenURI",
      "outputs": [
        {
          "internalType": "string",
          "name": "",
          "type": "string"
        }
      ],
      "stateMutability": "view",
      "type": "function"
    },
    {
      "inputs": [],
      "name": "totalSupply",
      "outputs": [
        {
          "internalType": "uint256",
          "name": "",
          "type": "uint256"
        }
      ],
      "stateMutability": "view",
      "type": "function"
    },
    {
      "inputs": [
        {
          "internalType": "address",
          "name": "from",
          "type": "address"
        },
        {
          "internalType": "address",
          "name": "to",
          "type": "address"
        },
        {
          "internalType": "uint256",
          "name": "tokenId",
          "type": "uint256"
        }
      ],
      "name": "transferFrom",
      "outputs": [],
      "stateMutability": "nonpayable",
      "type": "function"
    },
    {
      "inputs": [
        {
          "internalType": "address",
          "name": "newOwner",
          "type": "address"
        }
      ],
      "name": "transferOwnership",
      "outputs": [],
      "stateMutability": "nonpayable",
      "type": "function"
    },
    {
      "inputs": [
        {
          "internalType": "string",
          "name": "_newURI",
          "type": "string"
        }
      ],
      "name": "updateBaseURI",
      "outputs": [],
      "stateMutability": "nonpayable",
      "type": "function"
    },
    {
      "inputs": [
        {
          "internalType": "address",
          "name": "newImplementation",
          "type": "address"
        }
      ],
      "name": "upgradeTo",
      "outputs": [],
      "stateMutability": "nonpayable",
      "type": "function"
    },
    {
      "inputs": [
        {
          "internalType": "address",
          "name": "newImplementation",
          "type": "address"
        },
        {
          "internalType": "bytes",
          "name": "data",
          "type": "bytes"
        }
      ],
      "name": "upgradeToAndCall",
      "outputs": [],
      "stateMutability": "payable",
      "type": "function"
    }
  ],
  "bytecode": "0x60a06040523060601b60805234801561001757600080fd5b50610020610025565b6100e5565b600054610100900460ff16156100915760405162461bcd60e51b815260206004820152602760248201527f496e697469616c697a61626c653a20636f6e747261637420697320696e697469604482015266616c697a696e6760c81b606482015260840160405180910390fd5b60005460ff90811610156100e3576000805460ff191660ff9081179091556040519081527f7f26b83ff96e1f2b6a682f133852f6798a09c465da95921460cefb38474024989060200160405180910390a15b565b60805160601c61236862000120600039600081816108b5015281816108fe015281816109be015281816109fe0152610a9101526123686000f3fe6080604052600436106101815760003560e01c806370a08231116100d1578063a01f21941161008a578063c4c1c86e11610064578063c4c1c86e14610434578063c87b56dd14610454578063e985e9c514610474578063f2fde38b1461049457600080fd5b8063a01f2194146103d4578063a22cb465146103f4578063b88d4fde1461041457600080fd5b806370a0823114610337578063715018a6146103575780638129fc1c1461036c5780638da5cb5b14610381578063931688cb1461039f57806395d89b41146103bf57600080fd5b80633659cfe61161013e5780634f1ef286116101185780634f1ef286146102da57806352d1902d146102ed5780636352211e146103025780636c0360eb1461032257600080fd5b80633659cfe61461027a5780633e4bc33d1461029a57806342842e0e146102ba57600080fd5b806301ffc9a71461018657806306fdde03146101bb578063081812fc146101dd578063095ea7b31461021557806318160ddd1461023757806323b872dd1461025a575b600080fd5b34801561019257600080fd5b506101a66101a1366004611f68565b6104b4565b60405190151581526020015b60405180910390f35b3480156101c757600080fd5b506101d0610506565b6040516101b291906120d9565b3480156101e957600080fd5b506101fd6101f836600461200d565b6105a1565b6040516001600160a01b0390911681526020016101b2565b34801561022157600080fd5b50610235610230366004611f25565b6105ee565b005b34801561024357600080fd5b5061024c61069c565b6040519081526020016101b2565b34801561026657600080fd5b50610235610275366004611dfc565b6106bb565b34801561028657600080fd5b50610235610295366004611da8565b6108aa565b3480156102a657600080fd5b5060c9546101fd906001600160a01b031681565b3480156102c657600080fd5b506102356102d5366004611dfc565b610993565b6102356102e8366004611ed7565b6109b3565b3480156102f957600080fd5b5061024c610a84565b34801561030e57600080fd5b506101fd61031d36600461200d565b610b37565b34801561032e57600080fd5b506101d0610b42565b34801561034357600080fd5b5061024c610352366004611da8565b610bd0565b34801561036357600080fd5b50610235610c39565b34801561037857600080fd5b50610235610c4d565b34801561038d57600080fd5b506033546001600160a01b03166101fd565b3480156103ab57600080fd5b506102356103ba366004611fa0565b610eaf565b3480156103cb57600080fd5b506101d0610ec3565b3480156103e057600080fd5b506102356103ef366004611f25565b610edb565b34801561040057600080fd5b5061023561040f366004611ea6565b611083565b34801561042057600080fd5b5061023561042f366004611e3c565b61112a565b34801561044057600080fd5b5061023561044f366004611da8565b611174565b34801561046057600080fd5b506101d061046f36600461200d565b61119e565b34801561048057600080fd5b506101a661048f366004611dc4565b611223565b3480156104a057600080fd5b506102356104af366004611da8565b611260565b60006301ffc9a760e01b6001600160e01b0319831614806104e557506380ac58cd60e01b6001600160e01b03198316145b806105005750635b5e139f60e01b6001600160e01b03198316145b92915050565b60606105106112d6565b600201805461051e9061224f565b80601f016020809104026020016040519081016040528092919081815260200182805461054a9061224f565b80156105975780601f1061056c57610100808354040283529160200191610597565b820191906000526020600020905b81548152906001019060200180831161057a57829003601f168201915b5050505050905090565b60006105ac826112fa565b6105c9576040516333d1c03960e21b815260040160405180910390fd5b6105d16112d6565b60009283526006016020525060409020546001600160a01b031690565b60006105f982610b37565b9050336001600160a01b03821614610632576106158133611223565b610632576040516367d9dca160e11b815260040160405180910390fd5b8261063b6112d6565b6000848152600691909101602052604080822080546001600160a01b0319166001600160a01b0394851617905551849286811692908516917f8c5be1e5ebec7d5bd14f71427d1e84f3dd0314c0f7b2291e5b200ac8c7c3b9259190a4505050565b6000806106a76112d6565b600101546106b36112d6565b540303919050565b60006106c682611336565b9050836001600160a01b0316816001600160a01b0316146106f95760405162a1148160e81b815260040160405180910390fd5b600080610705846113bd565b9150915061072a81876107153390565b6001600160a01b039081169116811491141790565b610755576107388633611223565b61075557604051632ce44b5f60e11b815260040160405180910390fd5b6001600160a01b03851661077c57604051633a954ecd60e21b815260040160405180910390fd5b801561078757600082555b61078f6112d6565b6001600160a01b03871660009081526005919091016020526040902080546000190190556107bb6112d6565b6001600160a01b03861660008181526005929092016020526040909120805460010190554260a01b17600160e11b176107f26112d6565b60008681526004919091016020526040902055600160e11b8316610861576001840161081c6112d6565b6000828152600491909101602052604090205461085f5761083b6112d6565b54811461085f578361084b6112d6565b600083815260049190910160205260409020555b505b83856001600160a01b0316876001600160a01b03167fddf252ad1be2c89b69c2b068fc378daa952ba7f163c4a11628f55a4df523b3ef60405160405180910390a4505050505050565b306001600160a01b037f00000000000000000000000000000000000000000000000000000000000000001614156108fc5760405162461bcd60e51b81526004016108f390612140565b60405180910390fd5b7f00000000000000000000000000000000000000000000000000000000000000006001600160a01b03166109456000805160206122cc833981519152546001600160a01b031690565b6001600160a01b03161461096b5760405162461bcd60e51b81526004016108f39061218c565b610974816113e5565b60408051600080825260208201909252610990918391906113ed565b50565b6109ae8383836040518060200160405280600081525061112a565b505050565b306001600160a01b037f00000000000000000000000000000000000000000000000000000000000000001614156109fc5760405162461bcd60e51b81526004016108f390612140565b7f00000000000000000000000000000000000000000000000000000000000000006001600160a01b0316610a456000805160206122cc833981519152546001600160a01b031690565b6001600160a01b031614610a6b5760405162461bcd60e51b81526004016108f39061218c565b610a74826113e5565b610a80828260016113ed565b5050565b6000306001600160a01b037f00000000000000000000000000000000000000000000000000000000000000001614610b245760405162461bcd60e51b815260206004820152603860248201527f555550535570677261646561626c653a206d757374206e6f742062652063616c60448201527f6c6564207468726f7567682064656c656761746563616c6c000000000000000060648201526084016108f3565b506000805160206122cc83398151915290565b600061050082611336565b60ca8054610b4f9061224f565b80601f0160208091040260200160405190810160405280929190818152602001828054610b7b9061224f565b8015610bc85780601f10610b9d57610100808354040283529160200191610bc8565b820191906000526020600020905b815481529060010190602001808311610bab57829003601f168201915b505050505081565b60006001600160a01b038216610bf9576040516323d3ad8160e21b815260040160405180910390fd5b67ffffffffffffffff610c0a6112d6565b6005016000846001600160a01b03166001600160a01b0316815260200190815260200160002054169050919050565b610c41611567565b610c4b60006115c1565b565b60008051602061231383398151915254610100900460ff16610c82576000805160206123138339815191525460ff1615610c86565b303b155b610cf85760405162461bcd60e51b815260206004820152603760248201527f455243373231415f5f496e697469616c697a61626c653a20636f6e747261637460448201527f20697320616c726561647920696e697469616c697a656400000000000000000060648201526084016108f3565b60008051602061231383398151915254610100900460ff16158015610d3457600080516020612313833981519152805461ffff19166101011790555b600054610100900460ff1615808015610d545750600054600160ff909116105b80610d6e5750303b158015610d6e575060005460ff166001145b610dd15760405162461bcd60e51b815260206004820152602e60248201527f496e697469616c697a61626c653a20636f6e747261637420697320616c72656160448201526d191e481a5b9a5d1a585b1a5e995960921b60648201526084016108f3565b6000805460ff191660011790558015610df4576000805461ff0019166101001790555b610e376040518060400160405280600581526020016408e9acac6d60db1b8152506040518060400160405280600481526020016308e9a86960e31b815250611613565b610e3f611651565b610e47611680565b8015610e8d576000805461ff0019169055604051600181527f7f26b83ff96e1f2b6a682f133852f6798a09c465da95921460cefb38474024989060200160405180910390a15b5080156109905750600080516020612313833981519152805461ff0019169055565b610eb7611567565b6109ae60ca8383611c14565b6060610ecd6112d6565b600301805461051e9061224f565b60c954604051627eeac760e11b8152336004820152602481018390526001600160a01b039091169062fdd58e9060440160206040518083038186803b158015610f2357600080fd5b505afa158015610f37573d6000803e3d6000fd5b505050506040513d601f19601f82011682018060405250810190610f5b9190611f50565b610fb95760405162461bcd60e51b815260206004820152602960248201527f6d696e74454d6563683a205573657220646f65736e277420686f6c6473206d65604482015268636820746f6b656e7360b81b60648201526084016108f3565b6000610fc36116a7565b9050610fd08360016116b7565b60c95460405163933c46d560e01b815233600482015260248101849052600160448201526001600160a01b039091169063933c46d590606401600060405180830381600087803b15801561102357600080fd5b505af1158015611037573d6000803e3d6000fd5b5050604080516001600160a01b0387168152602081018590527fe32f9303c62fb7cdae2539a853721dc9c26931f21c4a24ff33575916b8af993f935001905060405180910390a1505050565b6001600160a01b0382163314156110ad5760405163b06307db60e01b815260040160405180910390fd5b806110b66112d6565b336000818152600792909201602090815260408084206001600160a01b03881680865290835293819020805460ff19169515159590951790945592518415158152919290917f17307eab39ab6107e8899845ad3d59bd9653f200f220920489ca2b5937696c31910160405180910390a35050565b6111358484846106bb565b6001600160a01b0383163b1561116e57611151848484846117eb565b61116e576040516368d2bf6b60e11b815260040160405180910390fd5b50505050565b61117c611567565b60c980546001600160a01b0319166001600160a01b0392909216919091179055565b60606111a9826112fa565b6111c657604051630a14c4b560e41b815260040160405180910390fd5b60006111d06118e2565b90508051600014156111f1576040518060200160405280600081525061121c565b806111fb846118f1565b60405160200161120c92919061206d565b6040516020818303038152906040525b9392505050565b600061122d6112d6565b6001600160a01b039384166000908152600791909101602090815260408083209490951682529290925250205460ff1690565b611268611567565b6001600160a01b0381166112cd5760405162461bcd60e51b815260206004820152602660248201527f4f776e61626c653a206e6577206f776e657220697320746865207a65726f206160448201526564647265737360d01b60648201526084016108f3565b610990816115c1565b7f2569078dfb4b0305704d3008e7403993ae9601b85f7ae5e742de3de8f8011c4090565b60006113046112d6565b54821080156105005750600160e01b61131b6112d6565b60008481526004919091016020526040902054161592915050565b6000816113416112d6565b548110156113a45760006113536112d6565b600083815260049190910160205260409020549050600160e01b81166113a2575b8061121c576113816112d6565b60001990920160008181526004939093016020526040909220549050611374565b505b604051636f96cda160e11b815260040160405180910390fd5b60008060006113ca6112d6565b60009485526006016020525050604090912080549092909150565b610990611567565b7f4910fdfa16fed3260ed0e7147f7cc6da11a60208b5b9406d12a635614ffd91435460ff1615611420576109ae83611933565b826001600160a01b03166352d1902d6040518163ffffffff1660e01b815260040160206040518083038186803b15801561145957600080fd5b505afa925050508015611489575060408051601f3d908101601f1916820190925261148691810190611f50565b60015b6114ec5760405162461bcd60e51b815260206004820152602e60248201527f45524331393637557067726164653a206e657720696d706c656d656e7461746960448201526d6f6e206973206e6f74205555505360901b60648201526084016108f3565b6000805160206122cc833981519152811461155b5760405162461bcd60e51b815260206004820152602960248201527f45524331393637557067726164653a20756e737570706f727465642070726f786044820152681a58589b195555525160ba1b60648201526084016108f3565b506109ae8383836119cf565b6033546001600160a01b03163314610c4b5760405162461bcd60e51b815260206004820181905260248201527f4f776e61626c653a2063616c6c6572206973206e6f7420746865206f776e657260448201526064016108f3565b603380546001600160a01b038381166001600160a01b0319831681179093556040519116919082907f8be0079c531659141344cd1fd0a4f28419497f9722a3daafe3b4186f6b6457e090600090a35050565b60008051602061231383398151915254610100900460ff166116475760405162461bcd60e51b81526004016108f3906120ec565b610a8082826119f4565b600054610100900460ff166116785760405162461bcd60e51b81526004016108f3906121d8565b610c4b611a77565b600054610100900460ff16610c4b5760405162461bcd60e51b81526004016108f3906121d8565b60006116b16112d6565b54919050565b60006116c16112d6565b549050816116e25760405163b562e8dd60e01b815260040160405180910390fd5b6801000000000000000182026116f66112d6565b6001600160a01b038516600081815260059290920160205260409091208054929092019091554260a01b6001841460e11b17176117316112d6565b600083815260049190910160205260408120919091556001600160a01b0384169083830190839083907fddf252ad1be2c89b69c2b068fc378daa952ba7f163c4a11628f55a4df523b3ef8180a4600183015b8181146117bb57808360007fddf252ad1be2c89b69c2b068fc378daa952ba7f163c4a11628f55a4df523b3ef600080a4600101611783565b50816117d957604051622e076360e81b815260040160405180910390fd5b806117e26112d6565b55506109ae9050565b604051630a85bd0160e11b81526000906001600160a01b0385169063150b7a029061182090339089908890889060040161209c565b602060405180830381600087803b15801561183a57600080fd5b505af192505050801561186a575060408051601f3d908101601f1916820190925261186791810190611f84565b60015b6118c5573d808015611898576040519150601f19603f3d011682016040523d82523d6000602084013e61189d565b606091505b5080516118bd576040516368d2bf6b60e11b815260040160405180910390fd5b805181602001fd5b6001600160e01b031916630a85bd0160e11b149050949350505050565b606060ca805461051e9061224f565b604080516080019081905280825b600183039250600a81066030018353600a90048061191c57611921565b6118ff565b50819003601f19909101908152919050565b6001600160a01b0381163b6119a05760405162461bcd60e51b815260206004820152602d60248201527f455243313936373a206e657720696d706c656d656e746174696f6e206973206e60448201526c1bdd08184818dbdb9d1c9858dd609a1b60648201526084016108f3565b6000805160206122cc83398151915280546001600160a01b0319166001600160a01b0392909216919091179055565b6119d883611aa7565b6000825111806119e55750805b156109ae5761116e8383611ae7565b60008051602061231383398151915254610100900460ff16611a285760405162461bcd60e51b81526004016108f3906120ec565b81611a316112d6565b6002019080519060200190611a47929190611c98565b5080611a516112d6565b6003019080519060200190611a67929190611c98565b506000611a726112d6565b555050565b600054610100900460ff16611a9e5760405162461bcd60e51b81526004016108f3906121d8565b610c4b336115c1565b611ab081611933565b6040516001600160a01b038216907fbc7cd75a20ee27fd9adebab32041f755214dbc6bffa90cc0225b39da2e5c2d3b90600090a250565b60606001600160a01b0383163b611b4f5760405162461bcd60e51b815260206004820152602660248201527f416464726573733a2064656c65676174652063616c6c20746f206e6f6e2d636f6044820152651b9d1c9858dd60d21b60648201526084016108f3565b600080846001600160a01b031684604051611b6a9190612051565b600060405180830381855af49150503d8060008114611ba5576040519150601f19603f3d011682016040523d82523d6000602084013e611baa565b606091505b5091509150611bd282826040518060600160405280602781526020016122ec60279139611bdb565b95945050505050565b60608315611bea57508161121c565b825115611bfa5782518084602001fd5b8160405162461bcd60e51b81526004016108f391906120d9565b828054611c209061224f565b90600052602060002090601f016020900481019282611c425760008555611c88565b82601f10611c5b5782800160ff19823516178555611c88565b82800160010185558215611c88579182015b82811115611c88578235825591602001919060010190611c6d565b50611c94929150611d0c565b5090565b828054611ca49061224f565b90600052602060002090601f016020900481019282611cc65760008555611c88565b82601f10611cdf57805160ff1916838001178555611c88565b82800160010185558215611c88579182015b82811115611c88578251825591602001919060010190611cf1565b5b80821115611c945760008155600101611d0d565b600082601f830112611d31578081fd5b813567ffffffffffffffff80821115611d4c57611d4c61228a565b604051601f8301601f19908116603f01168101908282118183101715611d7457611d7461228a565b81604052838152866020858801011115611d8c578485fd5b8360208701602083013792830160200193909352509392505050565b600060208284031215611db9578081fd5b813561121c816122a0565b60008060408385031215611dd6578081fd5b8235611de1816122a0565b91506020830135611df1816122a0565b809150509250929050565b600080600060608486031215611e10578081fd5b8335611e1b816122a0565b92506020840135611e2b816122a0565b929592945050506040919091013590565b60008060008060808587031215611e51578081fd5b8435611e5c816122a0565b93506020850135611e6c816122a0565b925060408501359150606085013567ffffffffffffffff811115611e8e578182fd5b611e9a87828801611d21565b91505092959194509250565b60008060408385031215611eb8578182fd5b8235611ec3816122a0565b915060208301358015158114611df1578182fd5b60008060408385031215611ee9578182fd5b8235611ef4816122a0565b9150602083013567ffffffffffffffff811115611f0f578182fd5b611f1b85828601611d21565b9150509250929050565b60008060408385031215611f37578182fd5b8235611f42816122a0565b946020939093013593505050565b600060208284031215611f61578081fd5b5051919050565b600060208284031215611f79578081fd5b813561121c816122b5565b600060208284031215611f95578081fd5b815161121c816122b5565b60008060208385031215611fb2578182fd5b823567ffffffffffffffff80821115611fc9578384fd5b818501915085601f830112611fdc578384fd5b813581811115611fea578485fd5b866020828501011115611ffb578485fd5b60209290920196919550909350505050565b60006020828403121561201e578081fd5b5035919050565b6000815180845261203d816020860160208601612223565b601f01601f19169290920160200192915050565b60008251612063818460208701612223565b9190910192915050565b6000835161207f818460208801612223565b835190830190612093818360208801612223565b01949350505050565b6001600160a01b03858116825284166020820152604081018390526080606082018190526000906120cf90830184612025565b9695505050505050565b60208152600061121c6020830184612025565b60208082526034908201527f455243373231415f5f496e697469616c697a61626c653a20636f6e7472616374604082015273206973206e6f7420696e697469616c697a696e6760601b606082015260800190565b6020808252602c908201527f46756e6374696f6e206d7573742062652063616c6c6564207468726f7567682060408201526b19195b1959d85d1958d85b1b60a21b606082015260800190565b6020808252602c908201527f46756e6374696f6e206d7573742062652063616c6c6564207468726f7567682060408201526b6163746976652070726f787960a01b606082015260800190565b6020808252602b908201527f496e697469616c697a61626c653a20636f6e7472616374206973206e6f74206960408201526a6e697469616c697a696e6760a81b606082015260800190565b60005b8381101561223e578181015183820152602001612226565b8381111561116e5750506000910152565b600181811c9082168061226357607f821691505b6020821081141561228457634e487b7160e01b600052602260045260246000fd5b50919050565b634e487b7160e01b600052604160045260246000fd5b6001600160a01b038116811461099057600080fd5b6001600160e01b03198116811461099057600080fdfe360894a13ba1a3210667c828492db98dca3e2076cc3735a920a3ca505d382bbc416464726573733a206c6f772d6c6576656c2064656c65676174652063616c6c206661696c6564ee151c8401928dc223602bb187aff91b9a56c7cae5476ef1b3287b085a16c85fa2646970667358221220e3e5d948c5bd223ff54b0891ba692ef2382245a9c87b4c1c415fa99b926403d064736f6c63430008040033",
  "linkReferences": {},
  "deployedLinkReferences": {}
}