{
  "_format": "hh-sol-artifact-1",
  "contractName": "MechToken",
  "sourceName": "contracts/MechToken.sol",
  "abi": [
    {
      "inputs": [],
      "stateMutability": "nonpayable",
      "type": "constructor"
    },
    {
      "anonymous": false,
      "inputs": [
        {
          "indexed": false,
          "internalType": "address",
          "name": "previousAdmin",
          "type": "address"
        },
        {
          "indexed": false,
          "internalType": "address",
          "name": "newAdmin",
          "type": "address"
        }
      ],
      "name": "AdminChanged",
      "type": "event"
    },
    {
      "anonymous": false,
      "inputs": [
        {
          "indexed": true,
          "internalType": "address",
          "name": "account",
          "type": "address"
        },
        {
          "indexed": true,
          "internalType": "address",
          "name": "operator",
          "type": "address"
        },
        {
          "indexed": false,
          "internalType": "bool",
          "name": "approved",
          "type": "bool"
        }
      ],
      "name": "ApprovalForAll",
      "type": "event"
    },
    {
      "anonymous": false,
      "inputs": [
        {
          "indexed": true,
          "internalType": "address",
          "name": "beacon",
          "type": "address"
        }
      ],
      "name": "BeaconUpgraded",
      "type": "event"
    },
    {
      "anonymous": false,
      "inputs": [
        {
          "indexed": true,
          "internalType": "uint256",
          "name": "tokenId",
          "type": "uint256"
        },
        {
          "indexed": false,
          "internalType": "uint256",
          "name": "amount",
          "type": "uint256"
        }
      ],
      "name": "Burn",
      "type": "event"
    },
    {
      "anonymous": false,
      "inputs": [
        {
          "indexed": false,
          "internalType": "uint8",
          "name": "version",
          "type": "uint8"
        }
      ],
      "name": "Initialized",
      "type": "event"
    },
    {
      "anonymous": false,
      "inputs": [
        {
          "indexed": true,
          "internalType": "uint256",
          "name": "tokenId",
          "type": "uint256"
        },
        {
          "indexed": false,
          "internalType": "address",
          "name": "reciever",
          "type": "address"
        },
        {
          "indexed": false,
          "internalType": "uint256",
          "name": "amount",
          "type": "uint256"
        },
        {
          "indexed": false,
          "internalType": "string",
          "name": "uri",
          "type": "string"
        }
      ],
      "name": "Mint",
      "type": "event"
    },
    {
      "anonymous": false,
      "inputs": [
        {
          "indexed": true,
          "internalType": "address",
          "name": "previousOwner",
          "type": "address"
        },
        {
          "indexed": true,
          "internalType": "address",
          "name": "newOwner",
          "type": "address"
        }
      ],
      "name": "OwnershipTransferred",
      "type": "event"
    },
    {
      "anonymous": false,
      "inputs": [
        {
          "indexed": true,
          "internalType": "bytes32",
          "name": "role",
          "type": "bytes32"
        },
        {
          "indexed": true,
          "internalType": "bytes32",
          "name": "previousAdminRole",
          "type": "bytes32"
        },
        {
          "indexed": true,
          "internalType": "bytes32",
          "name": "newAdminRole",
          "type": "bytes32"
        }
      ],
      "name": "RoleAdminChanged",
      "type": "event"
    },
    {
      "anonymous": false,
      "inputs": [
        {
          "indexed": true,
          "internalType": "bytes32",
          "name": "role",
          "type": "bytes32"
        },
        {
          "indexed": true,
          "internalType": "address",
          "name": "account",
          "type": "address"
        },
        {
          "indexed": true,
          "internalType": "address",
          "name": "sender",
          "type": "address"
        }
      ],
      "name": "RoleGranted",
      "type": "event"
    },
    {
      "anonymous": false,
      "inputs": [
        {
          "indexed": true,
          "internalType": "bytes32",
          "name": "role",
          "type": "bytes32"
        },
        {
          "indexed": true,
          "internalType": "address",
          "name": "account",
          "type": "address"
        },
        {
          "indexed": true,
          "internalType": "address",
          "name": "sender",
          "type": "address"
        }
      ],
      "name": "RoleRevoked",
      "type": "event"
    },
    {
      "anonymous": false,
      "inputs": [
        {
          "indexed": true,
          "internalType": "address",
          "name": "operator",
          "type": "address"
        },
        {
          "indexed": true,
          "internalType": "address",
          "name": "from",
          "type": "address"
        },
        {
          "indexed": true,
          "internalType": "address",
          "name": "to",
          "type": "address"
        },
        {
          "indexed": false,
          "internalType": "uint256[]",
          "name": "ids",
          "type": "uint256[]"
        },
        {
          "indexed": false,
          "internalType": "uint256[]",
          "name": "values",
          "type": "uint256[]"
        }
      ],
      "name": "TransferBatch",
      "type": "event"
    },
    {
      "anonymous": false,
      "inputs": [
        {
          "indexed": true,
          "internalType": "address",
          "name": "operator",
          "type": "address"
        },
        {
          "indexed": true,
          "internalType": "address",
          "name": "from",
          "type": "address"
        },
        {
          "indexed": true,
          "internalType": "address",
          "name": "to",
          "type": "address"
        },
        {
          "indexed": false,
          "internalType": "uint256",
          "name": "id",
          "type": "uint256"
        },
        {
          "indexed": false,
          "internalType": "uint256",
          "name": "value",
          "type": "uint256"
        }
      ],
      "name": "TransferSingle",
      "type": "event"
    },
    {
      "anonymous": false,
      "inputs": [
        {
          "indexed": false,
          "internalType": "string",
          "name": "value",
          "type": "string"
        },
        {
          "indexed": true,
          "internalType": "uint256",
          "name": "id",
          "type": "uint256"
        }
      ],
      "name": "URI",
      "type": "event"
    },
    {
      "anonymous": false,
      "inputs": [
        {
          "indexed": true,
          "internalType": "address",
          "name": "implementation",
          "type": "address"
        }
      ],
      "name": "Upgraded",
      "type": "event"
    },
    {
      "inputs": [],
      "name": "ADMIN_ROLE",
      "outputs": [
        {
          "internalType": "bytes32",
          "name": "",
          "type": "bytes32"
        }
      ],
      "stateMutability": "view",
      "type": "function"
    },
    {
      "inputs": [],
      "name": "DEFAULT_ADMIN_ROLE",
      "outputs": [
        {
          "internalType": "bytes32",
          "name": "",
          "type": "bytes32"
        }
      ],
      "stateMutability": "view",
      "type": "function"
    },
    {
      "inputs": [],
      "name": "EMECH_CONTRACT_ROLE",
      "outputs": [
        {
          "internalType": "bytes32",
          "name": "",
          "type": "bytes32"
        }
      ],
      "stateMutability": "view",
      "type": "function"
    },
    {
      "inputs": [
        {
          "internalType": "address",
          "name": "account",
          "type": "address"
        },
        {
          "internalType": "uint256",
          "name": "id",
          "type": "uint256"
        }
      ],
      "name": "balanceOf",
      "outputs": [
        {
          "internalType": "uint256",
          "name": "",
          "type": "uint256"
        }
      ],
      "stateMutability": "view",
      "type": "function"
    },
    {
      "inputs": [
        {
          "internalType": "address[]",
          "name": "accounts",
          "type": "address[]"
        },
        {
          "internalType": "uint256[]",
          "name": "ids",
          "type": "uint256[]"
        }
      ],
      "name": "balanceOfBatch",
      "outputs": [
        {
          "internalType": "uint256[]",
          "name": "",
          "type": "uint256[]"
        }
      ],
      "stateMutability": "view",
      "type": "function"
    },
    {
      "inputs": [
        {
          "internalType": "address",
          "name": "_from",
          "type": "address"
        },
        {
          "internalType": "uint256",
          "name": "_id",
          "type": "uint256"
        },
        {
          "internalType": "uint256",
          "name": "_amount",
          "type": "uint256"
        }
      ],
      "name": "burnMechIndividually",
      "outputs": [],
      "stateMutability": "nonpayable",
      "type": "function"
    },
    {
      "inputs": [],
      "name": "emechToken",
      "outputs": [
        {
          "internalType": "contract IEMechToken",
          "name": "",
          "type": "address"
        }
      ],
      "stateMutability": "view",
      "type": "function"
    },
    {
      "inputs": [
        {
          "internalType": "uint256",
          "name": "id",
          "type": "uint256"
        }
      ],
      "name": "exists",
      "outputs": [
        {
          "internalType": "bool",
          "name": "",
          "type": "bool"
        }
      ],
      "stateMutability": "view",
      "type": "function"
    },
    {
      "inputs": [
        {
          "internalType": "bytes32",
          "name": "role",
          "type": "bytes32"
        }
      ],
      "name": "getRoleAdmin",
      "outputs": [
        {
          "internalType": "bytes32",
          "name": "",
          "type": "bytes32"
        }
      ],
      "stateMutability": "view",
      "type": "function"
    },
    {
      "inputs": [
        {
          "internalType": "bytes32",
          "name": "role",
          "type": "bytes32"
        },
        {
          "internalType": "address",
          "name": "account",
          "type": "address"
        }
      ],
      "name": "grantRole",
      "outputs": [],
      "stateMutability": "nonpayable",
      "type": "function"
    },
    {
      "inputs": [
        {
          "internalType": "bytes32",
          "name": "role",
          "type": "bytes32"
        },
        {
          "internalType": "address",
          "name": "account",
          "type": "address"
        }
      ],
      "name": "hasRole",
      "outputs": [
        {
          "internalType": "bool",
          "name": "",
          "type": "bool"
        }
      ],
      "stateMutability": "view",
      "type": "function"
    },
    {
      "inputs": [
        {
          "internalType": "string",
          "name": "_baseURI",
          "type": "string"
        },
        {
          "internalType": "address",
          "name": "_admin",
          "type": "address"
        }
      ],
      "name": "initialize",
      "outputs": [],
      "stateMutability": "nonpayable",
      "type": "function"
    },
    {
      "inputs": [
        {
          "internalType": "address",
          "name": "account",
          "type": "address"
        },
        {
          "internalType": "address",
          "name": "operator",
          "type": "address"
        }
      ],
      "name": "isApprovedForAll",
      "outputs": [
        {
          "internalType": "bool",
          "name": "",
          "type": "bool"
        }
      ],
      "stateMutability": "view",
      "type": "function"
    },
    {
      "inputs": [
        {
          "internalType": "address",
          "name": "_reciever",
          "type": "address"
        },
        {
          "internalType": "uint256",
          "name": "_amount",
          "type": "uint256"
        },
        {
          "internalType": "string",
          "name": "_uri",
          "type": "string"
        },
        {
          "internalType": "bytes32[]",
          "name": "_proof",
          "type": "bytes32[]"
        }
      ],
      "name": "mintMechIndividually",
      "outputs": [],
      "stateMutability": "nonpayable",
      "type": "function"
    },
    {
      "inputs": [],
      "name": "owner",
      "outputs": [
        {
          "internalType": "address",
          "name": "",
          "type": "address"
        }
      ],
      "stateMutability": "view",
      "type": "function"
    },
    {
      "inputs": [
        {
          "internalType": "address",
          "name": "",
          "type": "address"
        },
        {
          "internalType": "uint256",
          "name": "",
          "type": "uint256"
        }
      ],
      "name": "ownersTokenList",
      "outputs": [
        {
          "internalType": "uint256",
          "name": "",
          "type": "uint256"
        }
      ],
      "stateMutability": "view",
      "type": "function"
    },
    {
      "inputs": [],
      "name": "proxiableUUID",
      "outputs": [
        {
          "internalType": "bytes32",
          "name": "",
          "type": "bytes32"
        }
      ],
      "stateMutability": "view",
      "type": "function"
    },
    {
      "inputs": [],
      "name": "renounceOwnership",
      "outputs": [],
      "stateMutability": "nonpayable",
      "type": "function"
    },
    {
      "inputs": [
        {
          "internalType": "bytes32",
          "name": "role",
          "type": "bytes32"
        },
        {
          "internalType": "address",
          "name": "account",
          "type": "address"
        }
      ],
      "name": "renounceRole",
      "outputs": [],
      "stateMutability": "nonpayable",
      "type": "function"
    },
    {
      "inputs": [
        {
          "internalType": "bytes32",
          "name": "role",
          "type": "bytes32"
        },
        {
          "internalType": "address",
          "name": "account",
          "type": "address"
        }
      ],
      "name": "revokeRole",
      "outputs": [],
      "stateMutability": "nonpayable",
      "type": "function"
    },
    {
      "inputs": [
        {
          "internalType": "address",
          "name": "from",
          "type": "address"
        },
        {
          "internalType": "address",
          "name": "to",
          "type": "address"
        },
        {
          "internalType": "uint256[]",
          "name": "ids",
          "type": "uint256[]"
        },
        {
          "internalType": "uint256[]",
          "name": "amounts",
          "type": "uint256[]"
        },
        {
          "internalType": "bytes",
          "name": "data",
          "type": "bytes"
        }
      ],
      "name": "safeBatchTransferFrom",
      "outputs": [],
      "stateMutability": "nonpayable",
      "type": "function"
    },
    {
      "inputs": [
        {
          "internalType": "address",
          "name": "from",
          "type": "address"
        },
        {
          "internalType": "address",
          "name": "to",
          "type": "address"
        },
        {
          "internalType": "uint256",
          "name": "id",
          "type": "uint256"
        },
        {
          "internalType": "uint256",
          "name": "amount",
          "type": "uint256"
        },
        {
          "internalType": "bytes",
          "name": "data",
          "type": "bytes"
        }
      ],
      "name": "safeTransferFrom",
      "outputs": [],
      "stateMutability": "nonpayable",
      "type": "function"
    },
    {
      "inputs": [
        {
          "internalType": "address",
          "name": "operator",
          "type": "address"
        },
        {
          "internalType": "bool",
          "name": "approved",
          "type": "bool"
        }
      ],
      "name": "setApprovalForAll",
      "outputs": [],
      "stateMutability": "nonpayable",
      "type": "function"
    },
    {
      "inputs": [
        {
          "internalType": "contract IEMechToken",
          "name": "_emechToken",
          "type": "address"
        }
      ],
      "name": "setEMechToken",
      "outputs": [],
      "stateMutability": "nonpayable",
      "type": "function"
    },
    {
      "inputs": [
        {
          "internalType": "bytes32",
          "name": "_root",
          "type": "bytes32"
        }
      ],
      "name": "setMerkelRoot",
      "outputs": [],
      "stateMutability": "nonpayable",
      "type": "function"
    },
    {
      "inputs": [
        {
          "internalType": "bytes4",
          "name": "interfaceId",
          "type": "bytes4"
        }
      ],
      "name": "supportsInterface",
      "outputs": [
        {
          "internalType": "bool",
          "name": "",
          "type": "bool"
        }
      ],
      "stateMutability": "view",
      "type": "function"
    },
    {
      "inputs": [
        {
          "internalType": "uint256",
          "name": "id",
          "type": "uint256"
        }
      ],
      "name": "totalSupply",
      "outputs": [
        {
          "internalType": "uint256",
          "name": "",
          "type": "uint256"
        }
      ],
      "stateMutability": "view",
      "type": "function"
    },
    {
      "inputs": [
        {
          "internalType": "address",
          "name": "newOwner",
          "type": "address"
        }
      ],
      "name": "transferOwnership",
      "outputs": [],
      "stateMutability": "nonpayable",
      "type": "function"
    },
    {
      "inputs": [
        {
          "internalType": "address",
          "name": "newImplementation",
          "type": "address"
        }
      ],
      "name": "upgradeTo",
      "outputs": [],
      "stateMutability": "nonpayable",
      "type": "function"
    },
    {
      "inputs": [
        {
          "internalType": "address",
          "name": "newImplementation",
          "type": "address"
        },
        {
          "internalType": "bytes",
          "name": "data",
          "type": "bytes"
        }
      ],
      "name": "upgradeToAndCall",
      "outputs": [],
      "stateMutability": "payable",
      "type": "function"
    },
    {
      "inputs": [
        {
          "internalType": "uint256",
          "name": "_id",
          "type": "uint256"
        }
      ],
      "name": "uri",
      "outputs": [
        {
          "internalType": "string",
          "name": "",
          "type": "string"
        }
      ],
      "stateMutability": "view",
      "type": "function"
    }
  ],
  "bytecode": "0x60a06040523060601b6080523480156200001857600080fd5b506200002362000029565b620000eb565b600054610100900460ff1615620000965760405162461bcd60e51b815260206004820152602760248201527f496e697469616c697a61626c653a20636f6e747261637420697320696e697469604482015266616c697a696e6760c81b606482015260840160405180910390fd5b60005460ff9081161015620000e9576000805460ff191660ff9081179091556040519081527f7f26b83ff96e1f2b6a682f133852f6798a09c465da95921460cefb38474024989060200160405180910390a15b565b60805160601c6134d46200012660003960008181610a3101528181610a7101528181610c7201528181610cb20152610d4101526134d46000f3fe6080604052600436106101d75760003560e01c80637ab4339d11610102578063bd49f00f11610095578063e985e9c511610064578063e985e9c5146105a4578063ef1db987146105ed578063f242432a1461060e578063f2fde38b1461062e57600080fd5b8063bd49f00f14610516578063bd85b03914610536578063d547741f14610564578063d705e9841461058457600080fd5b8063a217fddf116100d1578063a217fddf1461048d578063a22cb465146104a2578063b5e115f5146104c2578063b61f4ab0146104e257600080fd5b80637ab4339d146103fb5780638da5cb5b1461041b57806391d148541461044d578063933c46d51461046d57600080fd5b806336568abe1161017a5780634f558e79116101495780634f558e791461037f57806352d1902d146103af578063715018a6146103c457806375b238fc146103d957600080fd5b806336568abe146102ff5780633659cfe61461031f5780634e1273f41461033f5780634f1ef2861461036c57600080fd5b8063195200cb116101b6578063195200cb1461026c578063248a9ca31461028e5780632eb2c2d6146102bf5780632f2ff15d146102df57600080fd5b8062fdd58e146101dc57806301ffc9a71461020f5780630e89341c1461023f575b600080fd5b3480156101e857600080fd5b506101fc6101f7366004612b34565b61064e565b6040519081526020015b60405180910390f35b34801561021b57600080fd5b5061022f61022a366004612d5c565b6106e6565b6040519015158152602001610206565b34801561024b57600080fd5b5061025f61025a366004612d08565b6106f7565b6040516102069190613005565b34801561027857600080fd5b5061028c610287366004612b5f565b61079a565b005b34801561029a57600080fd5b506101fc6102a9366004612d08565b600090815261015f602052604090206001015490565b3480156102cb57600080fd5b5061028c6102da3660046129a7565b610931565b3480156102eb57600080fd5b5061028c6102fa366004612d38565b61097d565b34801561030b57600080fd5b5061028c61031a366004612d38565b6109a8565b34801561032b57600080fd5b5061028c61033a366004612953565b610a26565b34801561034b57600080fd5b5061035f61035a366004612c46565b610b06565b6040516102069190612fcd565b61028c61037a366004612ae7565b610c67565b34801561038b57600080fd5b5061022f61039a366004612d08565b600090815261012d6020526040902054151590565b3480156103bb57600080fd5b506101fc610d34565b3480156103d057600080fd5b5061028c610de8565b3480156103e557600080fd5b506101fc60008051602061347f83398151915281565b34801561040757600080fd5b5061028c610416366004612d94565b610dfc565b34801561042757600080fd5b506033546001600160a01b03165b6040516001600160a01b039091168152602001610206565b34801561045957600080fd5b5061022f610468366004612d38565b610f42565b34801561047957600080fd5b5061028c610488366004612c12565b610f6e565b34801561049957600080fd5b506101fc600081565b3480156104ae57600080fd5b5061028c6104bd366004612ab6565b610fe3565b3480156104ce57600080fd5b5061028c6104dd366004612d08565b610fee565b3480156104ee57600080fd5b506101fc7f146d030d602598740daead5fba3aeb12661376a2a5371c6ad3293217484d4fe881565b34801561052257600080fd5b506101fc610531366004612b34565b61100d565b34801561054257600080fd5b506101fc610551366004612d08565b600090815261012d602052604090205490565b34801561057057600080fd5b5061028c61057f366004612d38565b61103f565b34801561059057600080fd5b5061028c61059f366004612953565b611065565b3480156105b057600080fd5b5061022f6105bf36600461296f565b6001600160a01b03918216600090815260fc6020908152604080832093909416825291909152205460ff1690565b3480156105f957600080fd5b5061019254610435906001600160a01b031681565b34801561061a57600080fd5b5061028c610629366004612a50565b6110c3565b34801561063a57600080fd5b5061028c610649366004612953565b611108565b60006001600160a01b0383166106be5760405162461bcd60e51b815260206004820152602a60248201527f455243313135353a2061646472657373207a65726f206973206e6f742061207660448201526930b634b21037bbb732b960b11b60648201526084015b60405180910390fd5b50600090815260fb602090815260408083206001600160a01b03949094168352929052205490565b60006106f18261117e565b92915050565b600081815261019560205260409020805460609190610715906132be565b80601f0160208091040260200160405190810160405280929190818152602001828054610741906132be565b801561078e5780601f106107635761010080835404028352916020019161078e565b820191906000526020600020905b81548152906001019060200180831161077157829003601f168201915b50505050509050919050565b610810828280806020026020016040519081016040528093929190818152602001838360200280828437600092019190915250506040516bffffffffffffffffffffffff193360601b16602082015260340191506107f59050565b604051602081830303815290604052805190602001206111a3565b6108665760405162461bcd60e51b815260206004820152602160248201527f6d696e744d6563683a2061646472657373206e6f742077686974656c697374656044820152601960fa1b60648201526084016106b5565b610872868686866111ba565b61088161019180546001019055565b600061088d6101915490565b90506108cf8186868080601f0160208091040260200160405190810160405280939291908181526020018383808284376000920191909152506112ba92505050565b6108ea878288604051806020016040528060008152506112da565b807f0ced1fd17decc64802619a80b4a6486ca77519f76d0457375043f3a4018f94f6888888886040516109209493929190612f85565b60405180910390a250505050505050565b6001600160a01b03851633148061094d575061094d85336105bf565b6109695760405162461bcd60e51b81526004016106b590613018565b61097685858585856113ff565b5050505050565b600082815261015f602052604090206001015461099981611609565b6109a38383611613565b505050565b6001600160a01b0381163314610a185760405162461bcd60e51b815260206004820152602f60248201527f416363657373436f6e74726f6c3a2063616e206f6e6c792072656e6f756e636560448201526e103937b632b9903337b91039b2b63360891b60648201526084016106b5565b610a22828261169a565b5050565b306001600160a01b037f0000000000000000000000000000000000000000000000000000000000000000161415610a6f5760405162461bcd60e51b81526004016106b5906130af565b7f00000000000000000000000000000000000000000000000000000000000000006001600160a01b0316610ab8600080516020613438833981519152546001600160a01b031690565b6001600160a01b031614610ade5760405162461bcd60e51b81526004016106b5906130fb565b610ae781611702565b60408051600080825260208201909252610b039183919061170a565b50565b60608151835114610b6b5760405162461bcd60e51b815260206004820152602960248201527f455243313135353a206163636f756e747320616e6420696473206c656e677468604482015268040dad2e6dac2e8c6d60bb1b60648201526084016106b5565b600083516001600160401b03811115610b9457634e487b7160e01b600052604160045260246000fd5b604051908082528060200260200182016040528015610bbd578160200160208202803683370190505b50905060005b8451811015610c5f57610c24858281518110610bef57634e487b7160e01b600052603260045260246000fd5b6020026020010151858381518110610c1757634e487b7160e01b600052603260045260246000fd5b602002602001015161064e565b828281518110610c4457634e487b7160e01b600052603260045260246000fd5b6020908102919091010152610c5881613325565b9050610bc3565b509392505050565b306001600160a01b037f0000000000000000000000000000000000000000000000000000000000000000161415610cb05760405162461bcd60e51b81526004016106b5906130af565b7f00000000000000000000000000000000000000000000000000000000000000006001600160a01b0316610cf9600080516020613438833981519152546001600160a01b031690565b6001600160a01b031614610d1f5760405162461bcd60e51b81526004016106b5906130fb565b610d2882611702565b610a228282600161170a565b6000306001600160a01b037f00000000000000000000000000000000000000000000000000000000000000001614610dd45760405162461bcd60e51b815260206004820152603860248201527f555550535570677261646561626c653a206d757374206e6f742062652063616c60448201527f6c6564207468726f7567682064656c656761746563616c6c000000000000000060648201526084016106b5565b506000805160206134388339815191525b90565b610df0611884565b610dfa60006118de565b565b600054610100900460ff1615808015610e1c5750600054600160ff909116105b80610e365750303b158015610e36575060005460ff166001145b610e995760405162461bcd60e51b815260206004820152602e60248201527f496e697469616c697a61626c653a20636f6e747261637420697320616c72656160448201526d191e481a5b9a5d1a585b1a5e995960921b60648201526084016106b5565b6000805460ff191660011790558015610ebc576000805461ff0019166101001790555b610ec583611930565b610ed0600083611960565b610ee860008051602061347f83398151915283611960565b610ef061196a565b610ef8611999565b80156109a3576000805461ff0019169055604051600181527f7f26b83ff96e1f2b6a682f133852f6798a09c465da95921460cefb38474024989060200160405180910390a1505050565b600091825261015f602090815260408084206001600160a01b0393909316845291905290205460ff1690565b7f146d030d602598740daead5fba3aeb12661376a2a5371c6ad3293217484d4fe8610f9881611609565b610fa38484846119c0565b827f410c5c259085cde81fedf70c1aa308ec839373c26e9b7ada6560a2aca0254eb683604051610fd591815260200190565b60405180910390a250505050565b610a22338383611b54565b60008051602061347f83398151915261100681611609565b5061019355565b610194602052816000526040600020818154811061102a57600080fd5b90600052602060002001600091509150505481565b600082815261015f602052604090206001015461105b81611609565b6109a3838361169a565b60008051602061347f83398151915261107d81611609565b61019280546001600160a01b0319166001600160a01b038416179055610a227f146d030d602598740daead5fba3aeb12661376a2a5371c6ad3293217484d4fe883611960565b6001600160a01b0385163314806110df57506110df85336105bf565b6110fb5760405162461bcd60e51b81526004016106b590613018565b6109768585858585611c35565b611110611884565b6001600160a01b0381166111755760405162461bcd60e51b815260206004820152602660248201527f4f776e61626c653a206e6577206f776e657220697320746865207a65726f206160448201526564647265737360d01b60648201526084016106b5565b610b03816118de565b60006001600160e01b03198216637965db0b60e01b14806106f157506106f182611d71565b60006111b3836101935484611dc1565b9392505050565b6001600160a01b03841661121a5760405162461bcd60e51b815260206004820152602160248201527f6265666f7265546f6b656e4d696e743a20496e76616c696420526563656976656044820152603960f91b60648201526084016106b5565b826112675760405162461bcd60e51b815260206004820152601c60248201527f6265666f7265546f6b656e4d696e743a20616d6f756e74203d3d20300000000060448201526064016106b5565b806112b45760405162461bcd60e51b815260206004820152601a60248201527f6265666f7265546f6b656e4d696e743a20456d7074792055524900000000000060448201526064016106b5565b50505050565b60008281526101956020908152604090912082516109a392840190612781565b6001600160a01b03841661133a5760405162461bcd60e51b815260206004820152602160248201527f455243313135353a206d696e7420746f20746865207a65726f206164647265736044820152607360f81b60648201526084016106b5565b33600061134685611dd7565b9050600061135385611dd7565b905061136483600089858589611e30565b600086815260fb602090815260408083206001600160a01b038b16845290915281208054879290611396908490613244565b909155505060408051878152602081018790526001600160a01b03808a1692600092918716917fc3d58168c5ae7397731d063d5bbf3d657854427343f4c083240f7aacaa2d0f62910160405180910390a46113f683600089898989611fe4565b50505050505050565b81518351146114615760405162461bcd60e51b815260206004820152602860248201527f455243313135353a2069647320616e6420616d6f756e7473206c656e677468206044820152670dad2e6dac2e8c6d60c31b60648201526084016106b5565b6001600160a01b0384166114875760405162461bcd60e51b81526004016106b590613147565b33611496818787878787611e30565b60005b845181101561159b5760008582815181106114c457634e487b7160e01b600052603260045260246000fd5b6020026020010151905060008583815181106114f057634e487b7160e01b600052603260045260246000fd5b602090810291909101810151600084815260fb835260408082206001600160a01b038e1683529093529190912054909150818110156115415760405162461bcd60e51b81526004016106b59061318c565b600083815260fb602090815260408083206001600160a01b038e8116855292528083208585039055908b16825281208054849290611580908490613244565b925050819055505050508061159490613325565b9050611499565b50846001600160a01b0316866001600160a01b0316826001600160a01b03167f4a39dc06d4c0dbc64b70af90fd698a233a518aa5d07e595d983b8c0526c8f7fb87876040516115eb929190612fe0565b60405180910390a461160181878787878761214f565b505050505050565b610b038133612219565b61161d8282610f42565b610a2257600082815261015f602090815260408083206001600160a01b03851684529091529020805460ff191660011790556116563390565b6001600160a01b0316816001600160a01b0316837f2f8788117e7eff1d82e926ec794901d17c78024a50270940304540a733656f0d60405160405180910390a45050565b6116a48282610f42565b15610a2257600082815261015f602090815260408083206001600160a01b0385168085529252808320805460ff1916905551339285917ff6391f5c32d9c69d2a47ea670b442974b53935d1edc7fd64eb21e047a839171b9190a45050565b610b03611884565b7f4910fdfa16fed3260ed0e7147f7cc6da11a60208b5b9406d12a635614ffd91435460ff161561173d576109a38361227d565b826001600160a01b03166352d1902d6040518163ffffffff1660e01b815260040160206040518083038186803b15801561177657600080fd5b505afa9250505080156117a6575060408051601f3d908101601f191682019092526117a391810190612d20565b60015b6118095760405162461bcd60e51b815260206004820152602e60248201527f45524331393637557067726164653a206e657720696d706c656d656e7461746960448201526d6f6e206973206e6f74205555505360901b60648201526084016106b5565b60008051602061343883398151915281146118785760405162461bcd60e51b815260206004820152602960248201527f45524331393637557067726164653a20756e737570706f727465642070726f786044820152681a58589b195555525160ba1b60648201526084016106b5565b506109a3838383612319565b6033546001600160a01b03163314610dfa5760405162461bcd60e51b815260206004820181905260248201527f4f776e61626c653a2063616c6c6572206973206e6f7420746865206f776e657260448201526064016106b5565b603380546001600160a01b038381166001600160a01b0319831681179093556040519116919082907f8be0079c531659141344cd1fd0a4f28419497f9722a3daafe3b4186f6b6457e090600090a35050565b600054610100900460ff166119575760405162461bcd60e51b81526004016106b5906131d6565b610b038161233e565b610a228282611613565b600054610100900460ff166119915760405162461bcd60e51b81526004016106b5906131d6565b610dfa61236e565b600054610100900460ff16610dfa5760405162461bcd60e51b81526004016106b5906131d6565b6001600160a01b038316611a225760405162461bcd60e51b815260206004820152602360248201527f455243313135353a206275726e2066726f6d20746865207a65726f206164647260448201526265737360e81b60648201526084016106b5565b336000611a2e84611dd7565b90506000611a3b84611dd7565b9050611a5b83876000858560405180602001604052806000815250611e30565b600085815260fb602090815260408083206001600160a01b038a16845290915290205484811015611ada5760405162461bcd60e51b8152602060048201526024808201527f455243313135353a206275726e20616d6f756e7420657863656564732062616c604482015263616e636560e01b60648201526084016106b5565b600086815260fb602090815260408083206001600160a01b038b81168086529184528285208a8703905582518b81529384018a90529092908816917fc3d58168c5ae7397731d063d5bbf3d657854427343f4c083240f7aacaa2d0f62910160405180910390a46040805160208101909152600090526113f6565b816001600160a01b0316836001600160a01b03161415611bc85760405162461bcd60e51b815260206004820152602960248201527f455243313135353a2073657474696e6720617070726f76616c20737461747573604482015268103337b91039b2b63360b91b60648201526084016106b5565b6001600160a01b03838116600081815260fc6020908152604080832094871680845294825291829020805460ff191686151590811790915591519182527f17307eab39ab6107e8899845ad3d59bd9653f200f220920489ca2b5937696c31910160405180910390a3505050565b6001600160a01b038416611c5b5760405162461bcd60e51b81526004016106b590613147565b336000611c6785611dd7565b90506000611c7485611dd7565b9050611c84838989858589611e30565b600086815260fb602090815260408083206001600160a01b038c16845290915290205485811015611cc75760405162461bcd60e51b81526004016106b59061318c565b600087815260fb602090815260408083206001600160a01b038d8116855292528083208985039055908a16825281208054889290611d06908490613244565b909155505060408051888152602081018890526001600160a01b03808b16928c821692918816917fc3d58168c5ae7397731d063d5bbf3d657854427343f4c083240f7aacaa2d0f62910160405180910390a4611d66848a8a8a8a8a611fe4565b505050505050505050565b60006001600160e01b03198216636cdb3d1360e11b1480611da257506001600160e01b031982166303a24d0760e21b145b806106f157506301ffc9a760e01b6001600160e01b03198316146106f1565b600082611dce858461239e565b14949350505050565b60408051600180825281830190925260609160009190602080830190803683370190505090508281600081518110611e1f57634e487b7160e01b600052603260045260246000fd5b602090810291909101015292915050565b6001600160a01b038516611ed45760005b8351811015611ed257828181518110611e6a57634e487b7160e01b600052603260045260246000fd5b602002602001015161012d6000868481518110611e9757634e487b7160e01b600052603260045260246000fd5b602002602001015181526020019081526020016000206000828254611ebc9190613244565b90915550611ecb905081613325565b9050611e41565b505b6001600160a01b0384166116015760005b83518110156113f6576000848281518110611f1057634e487b7160e01b600052603260045260246000fd5b602002602001015190506000848381518110611f3c57634e487b7160e01b600052603260045260246000fd5b60200260200101519050600061012d600084815260200190815260200160002054905081811015611fc05760405162461bcd60e51b815260206004820152602860248201527f455243313135353a206275726e20616d6f756e74206578636565647320746f74604482015267616c537570706c7960c01b60648201526084016106b5565b600092835261012d602052604090922091039055611fdd81613325565b9050611ee5565b6001600160a01b0384163b156116015760405163f23a6e6160e01b81526001600160a01b0385169063f23a6e61906120289089908990889088908890600401612f40565b602060405180830381600087803b15801561204257600080fd5b505af1925050508015612072575060408051601f3d908101601f1916820190925261206f91810190612d78565b60015b61211f5761207e61336c565b806308c379a014156120b85750612093613383565b8061209e57506120ba565b8060405162461bcd60e51b81526004016106b59190613005565b505b60405162461bcd60e51b815260206004820152603460248201527f455243313135353a207472616e7366657220746f206e6f6e20455243313135356044820152732932b1b2b4bb32b91034b6b83632b6b2b73a32b960611b60648201526084016106b5565b6001600160e01b0319811663f23a6e6160e01b146113f65760405162461bcd60e51b81526004016106b590613067565b6001600160a01b0384163b156116015760405163bc197c8160e01b81526001600160a01b0385169063bc197c81906121939089908990889088908890600401612ee2565b602060405180830381600087803b1580156121ad57600080fd5b505af19250505080156121dd575060408051601f3d908101601f191682019092526121da91810190612d78565b60015b6121e95761207e61336c565b6001600160e01b0319811663bc197c8160e01b146113f65760405162461bcd60e51b81526004016106b590613067565b6122238282610f42565b610a225761223b816001600160a01b031660146123f1565b6122468360206123f1565b604051602001612257929190612e6d565b60408051601f198184030181529082905262461bcd60e51b82526106b591600401613005565b6001600160a01b0381163b6122ea5760405162461bcd60e51b815260206004820152602d60248201527f455243313936373a206e657720696d706c656d656e746174696f6e206973206e60448201526c1bdd08184818dbdb9d1c9858dd609a1b60648201526084016106b5565b60008051602061343883398151915280546001600160a01b0319166001600160a01b0392909216919091179055565b612322836125d2565b60008251118061232f5750805b156109a3576112b48383612612565b600054610100900460ff166123655760405162461bcd60e51b81526004016106b5906131d6565b610b0381612706565b600054610100900460ff166123955760405162461bcd60e51b81526004016106b5906131d6565b610dfa336118de565b600081815b8451811015610c5f576123dd828683815181106123d057634e487b7160e01b600052603260045260246000fd5b6020026020010151612719565b9150806123e981613325565b9150506123a3565b6060600061240083600261325c565b61240b906002613244565b6001600160401b0381111561243057634e487b7160e01b600052604160045260246000fd5b6040519080825280601f01601f19166020018201604052801561245a576020820181803683370190505b509050600360fc1b8160008151811061248357634e487b7160e01b600052603260045260246000fd5b60200101906001600160f81b031916908160001a905350600f60fb1b816001815181106124c057634e487b7160e01b600052603260045260246000fd5b60200101906001600160f81b031916908160001a90535060006124e484600261325c565b6124ef906001613244565b90505b6001811115612583576f181899199a1a9b1b9c1cb0b131b232b360811b85600f166010811061253157634e487b7160e01b600052603260045260246000fd5b1a60f81b82828151811061255557634e487b7160e01b600052603260045260246000fd5b60200101906001600160f81b031916908160001a90535060049490941c9361257c816132a7565b90506124f2565b5083156111b35760405162461bcd60e51b815260206004820181905260248201527f537472696e67733a20686578206c656e67746820696e73756666696369656e7460448201526064016106b5565b6125db8161227d565b6040516001600160a01b038216907fbc7cd75a20ee27fd9adebab32041f755214dbc6bffa90cc0225b39da2e5c2d3b90600090a250565b60606001600160a01b0383163b61267a5760405162461bcd60e51b815260206004820152602660248201527f416464726573733a2064656c65676174652063616c6c20746f206e6f6e2d636f6044820152651b9d1c9858dd60d21b60648201526084016106b5565b600080846001600160a01b0316846040516126959190612e51565b600060405180830381855af49150503d80600081146126d0576040519150601f19603f3d011682016040523d82523d6000602084013e6126d5565b606091505b50915091506126fd828260405180606001604052806027815260200161345860279139612748565b95945050505050565b8051610a229060fd906020840190612781565b60008183106127355760008281526020849052604090206111b3565b60008381526020839052604090206111b3565b606083156127575750816111b3565b8251156127675782518084602001fd5b8160405162461bcd60e51b81526004016106b59190613005565b82805461278d906132be565b90600052602060002090601f0160209004810192826127af57600085556127f5565b82601f106127c857805160ff19168380011785556127f5565b828001600101855582156127f5579182015b828111156127f55782518255916020019190600101906127da565b50612801929150612805565b5090565b5b808211156128015760008155600101612806565b60006001600160401b0383111561283357612833613356565b60405161284a601f8501601f1916602001826132f9565b80915083815284848401111561285f57600080fd5b83836020830137600060208583010152509392505050565b60008083601f840112612888578182fd5b5081356001600160401b0381111561289e578182fd5b6020830191508360208260051b85010111156128b957600080fd5b9250929050565b600082601f8301126128d0578081fd5b813560206128dd82613221565b6040516128ea82826132f9565b8381528281019150858301600585901b87018401881015612909578586fd5b855b858110156129275781358452928401929084019060010161290b565b5090979650505050505050565b600082601f830112612944578081fd5b6111b38383356020850161281a565b600060208284031215612964578081fd5b81356111b38161340c565b60008060408385031215612981578081fd5b823561298c8161340c565b9150602083013561299c8161340c565b809150509250929050565b600080600080600060a086880312156129be578081fd5b85356129c98161340c565b945060208601356129d98161340c565b935060408601356001600160401b03808211156129f4578283fd5b612a0089838a016128c0565b94506060880135915080821115612a15578283fd5b612a2189838a016128c0565b93506080880135915080821115612a36578283fd5b50612a4388828901612934565b9150509295509295909350565b600080600080600060a08688031215612a67578081fd5b8535612a728161340c565b94506020860135612a828161340c565b9350604086013592506060860135915060808601356001600160401b03811115612aaa578182fd5b612a4388828901612934565b60008060408385031215612ac8578182fd5b8235612ad38161340c565b91506020830135801515811461299c578182fd5b60008060408385031215612af9578182fd5b8235612b048161340c565b915060208301356001600160401b03811115612b1e578182fd5b612b2a85828601612934565b9150509250929050565b60008060408385031215612b46578182fd5b8235612b518161340c565b946020939093013593505050565b60008060008060008060808789031215612b77578384fd5b8635612b828161340c565b95506020870135945060408701356001600160401b0380821115612ba4578586fd5b818901915089601f830112612bb7578586fd5b813581811115612bc5578687fd5b8a6020828501011115612bd6578687fd5b602083019650809550506060890135915080821115612bf3578283fd5b50612c0089828a01612877565b979a9699509497509295939492505050565b600080600060608486031215612c26578081fd5b8335612c318161340c565b95602085013595506040909401359392505050565b60008060408385031215612c58578182fd5b82356001600160401b0380821115612c6e578384fd5b818501915085601f830112612c81578384fd5b81356020612c8e82613221565b604051612c9b82826132f9565b8381528281019150858301600585901b870184018b1015612cba578889fd5b8896505b84871015612ce5578035612cd18161340c565b835260019690960195918301918301612cbe565b5096505086013592505080821115612cfb578283fd5b50612b2a858286016128c0565b600060208284031215612d19578081fd5b5035919050565b600060208284031215612d31578081fd5b5051919050565b60008060408385031215612d4a578182fd5b82359150602083013561299c8161340c565b600060208284031215612d6d578081fd5b81356111b381613421565b600060208284031215612d89578081fd5b81516111b381613421565b60008060408385031215612da6578182fd5b82356001600160401b03811115612dbb578283fd5b8301601f81018513612dcb578283fd5b612dda8582356020840161281a565b925050602083013561299c8161340c565b6000815180845260208085019450808401835b83811015612e1a57815187529582019590820190600101612dfe565b509495945050505050565b60008151808452612e3d81602086016020860161327b565b601f01601f19169290920160200192915050565b60008251612e6381846020870161327b565b9190910192915050565b7f416363657373436f6e74726f6c3a206163636f756e7420000000000000000000815260008351612ea581601785016020880161327b565b7001034b99036b4b9b9b4b733903937b6329607d1b6017918401918201528351612ed681602884016020880161327b565b01602801949350505050565b6001600160a01b0386811682528516602082015260a060408201819052600090612f0e90830186612deb565b8281036060840152612f208186612deb565b90508281036080840152612f348185612e25565b98975050505050505050565b6001600160a01b03868116825285166020820152604081018490526060810183905260a060808201819052600090612f7a90830184612e25565b979650505050505050565b6001600160a01b0385168152602081018490526060604082018190528101829052818360808301376000818301608090810191909152601f909201601f191601019392505050565b6020815260006111b36020830184612deb565b604081526000612ff36040830185612deb565b82810360208401526126fd8185612deb565b6020815260006111b36020830184612e25565b6020808252602f908201527f455243313135353a2063616c6c6572206973206e6f7420746f6b656e206f776e60408201526e195c881b9bdc88185c1c1c9bdd9959608a1b606082015260800190565b60208082526028908201527f455243313135353a204552433131353552656365697665722072656a656374656040820152676420746f6b656e7360c01b606082015260800190565b6020808252602c908201527f46756e6374696f6e206d7573742062652063616c6c6564207468726f7567682060408201526b19195b1959d85d1958d85b1b60a21b606082015260800190565b6020808252602c908201527f46756e6374696f6e206d7573742062652063616c6c6564207468726f7567682060408201526b6163746976652070726f787960a01b606082015260800190565b60208082526025908201527f455243313135353a207472616e7366657220746f20746865207a65726f206164604082015264647265737360d81b606082015260800190565b6020808252602a908201527f455243313135353a20696e73756666696369656e742062616c616e636520666f60408201526939103a3930b739b332b960b11b606082015260800190565b6020808252602b908201527f496e697469616c697a61626c653a20636f6e7472616374206973206e6f74206960408201526a6e697469616c697a696e6760a81b606082015260800190565b60006001600160401b0382111561323a5761323a613356565b5060051b60200190565b6000821982111561325757613257613340565b500190565b600081600019048311821515161561327657613276613340565b500290565b60005b8381101561329657818101518382015260200161327e565b838111156112b45750506000910152565b6000816132b6576132b6613340565b506000190190565b600181811c908216806132d257607f821691505b602082108114156132f357634e487b7160e01b600052602260045260246000fd5b50919050565b601f8201601f191681016001600160401b038111828210171561331e5761331e613356565b6040525050565b600060001982141561333957613339613340565b5060010190565b634e487b7160e01b600052601160045260246000fd5b634e487b7160e01b600052604160045260246000fd5b600060033d1115610de557600481823e5160e01c90565b600060443d10156133915790565b6040516003193d81016004833e81513d6001600160401b0381602484011181841117156133c057505050505090565b82850191508151818111156133d85750505050505090565b843d87010160208285010111156133f25750505050505090565b613401602082860101876132f9565b509095945050505050565b6001600160a01b0381168114610b0357600080fd5b6001600160e01b031981168114610b0357600080fdfe360894a13ba1a3210667c828492db98dca3e2076cc3735a920a3ca505d382bbc416464726573733a206c6f772d6c6576656c2064656c65676174652063616c6c206661696c6564a49807205ce4d355092ef5a8a18f56e8913cf4a201fbe287825b095693c21775a2646970667358221220b40844955465461d66756ec2dd59fdabf468088e4dbd02e4169abfa7012e330e64736f6c63430008040033",
  "linkReferences": {},
  "deployedLinkReferences": {}
}